S12300000D7600F37E19117E035400004838002C000000000000000000000000000000003D
S12300200000000000000000000000000000000000000000000000000000000000000000BC
S123004000000000000000000000000000000000000000000000000000000000000000009C
S123006000000000000000000000000000000000000000000000000000000000000000007C
S123008000000000000000000000000000000000000000000000000000000000000000005C
S12300A0000000000000000000000000000000000000000000000000000000000000007CC0
S12300C000C926037C00C8B6EA60813A2408812027ED803080D039FFEA607E03DF00000068
S12300FE60FD00000000000000000000000000804FC752007E19110CF00E4CF6F000573925
S123011E8DF924FCF6F001398DF15724FB847FB7F0013914A8151C14C20D640E2D0E581733
S123013E1417F412EA1780182A1830187618BA11A510C10F09116210E110CD10E911061100
S123015E0D7911DF7911D47B13227B13D67F171D500BAE460BAD454EC4464FD24E4558D45E
S123017E444154C1494E5055D44449CD524541C44C45D4474F54CF5255CE49C652455354DD
S123019E4F52C5474F5355C25245545552CE5245CD53544FD04FCE4E554CCC574149D4447C
S12301BE45C6504F4BC55052494ED4434F4ED44C4953D4434C4541D24E45D7544142A854C2
S12301DECF46CE535043A8544845CE4E4FD4535445D0ABADAAAFDE414EC44FD2BEBDBC5323
S12301FE47CE494ED44142D35553D24652C5504FD35351D2524EC44C4FC74558D0434FD3B0
S123021E5349CE5441CE4154CE504545CB4C45CE535452A45641CC4153C3434852A44C451F
S123023E4654A45249474854A44D4944A4000646057D09CB071E08F20C38091807A906E101
S123025E06BB073F062A06C506F807520645075F067C11B30E6711AC0812066A052C068DAC
S123027E04FA4EC653CE52C74FC446C34FD64FCD55D342D344C42FB049C454CD4FD34CD320
S123029E53D443CE55C6204552524FD20020494EA0000D0A4FCB0D0A000D0A42524541CB24
S12302BE003008080808C610DF71A60080812614EE01DF73DE9E27089C7327088D4220E6C6
S12302DEDE73DF9EDE714D398D2007369F780F9EA3DEA50809A600369CA926F8319FA79E20
S12302FE783206394F58DB819980CB268900251B9F78917825062213D179220F394FDF714A
S123031EDB7299719773D774DE7339C60CBD05187F0111BD084CBD08ABCE02808DDFA60065
S123033EBD08ADA601BD08ADCE02A3BD0891DE8A082703BD15EF7F0111CE02AFBD01128686
S123035E2C970FBD0404DFC8BD00BF27F2250BCEFFFFDF8ABD04467E0607BD077FDE8EDF23
S123037E0EBD0446D75ABD04DC2522D6AAE00186FFDB7D997C977CD77D07369F780FAE0066
S123039E3432A700089C7C26F89E7832069610272B967CD67D97A5D7A6DB5A890097A3D7BD
S12303BEA4BD02E607369F780F8E000B32A700089CA726F89E783207DEA3DF7CBD0506DEC3
S12303DE7AA600AA0126037E035DDFD80808080808A60026FB087E00D7BD08AD095A260B20
S12303FEBD08ADBD084CCE0010C6018D2B81072714810D2720812025F2817D24EE814027B3
S123041EDF815F27D4A700C1482403085C8C8607BD08AD20D67E084737BD011E1733847F17
S123043E810F2603730111397F005D7A00C9CE000FDFBD9F7807975F010F9EC833C12027C6
S123045E32D759C1222755965D2628C13F2604C6952020C1302504C13C2518CE01739EC8B7
S123047E5F0832812027FBA00027F681802632CA80DEBD9FC89E78965F0608DFBDE70027D9
S123049E2FC03A2704C1492602D75DC05426A9D7590F9EC8335D27DBD15927D708E700202F
S12304BEF39EC85CA600082AFBA60026B53320C1E701E702D6BEC00BCE000FDFC839968EEC
S12304DEDE7AE600EA012710A1022208250BD68FE1032305EE0020EA0DDFA93926FBDE7AED
S12304FE6F00086F0008DF7CDE7A09DFC8DE88DF84BD062ADE7CDF7EDF80CE0065DF61301A
S123051EEE009E824F3697909791975E6E0022ADBD077F26A832328DA5A600AA0126037E06
S123053E0354BD0630BD084CA602E60308080808DF71BD15F88620DE71BD08ADA600084D11
S123055E27D72AF5807FDF71CE01744A2707E600082AFB20F6A6002BDE08BD08AD20F68664
S123057E80975EBD07A9BD02BF31312604BD031E35C608BD0302BD0723DF71D67237D671CD
S123059E37D68B37D68A37C69BBD0B57BD0A25BD0A23D6B3CA7FD4B0D7B0CE05BE7E0AC3C4
S12305BECE12C9BD1450BD00C781A02606BD00BFBD0A23BD149BBD0ABDD69F37D69E37864B
S12305DE81368D4EDEC8DF92A6002707813A27197E0B6108A60008AA000C07275408A600FB
S12305FE978A08A600978BDFC8BD00BF8D0220D2276B808024037E07A9811A24D34816CE9F
S123061E024CBD031BEE00BD00BF6E00DE7A09DF9639BD011924FABD043636B6F00084104C
S123063E322702860381030D263307DEC8DF923131DE8A08270709DF8CDE92DF907F0111C8
S123065ECE02B60624037E03497E0354260FC620DE9026037E032BDFC8DE8CDF8A39BD1147
S123067E5326FA5CD10C24045AD70A397E0D642729BD0CE9BD00C726E49688D689D0B29200
S123069EB12514DE829782D783C02882002506D07D927C2405DF827E03297E050B26037E22
S12306BE0506BD050B2014C603BD0302D6C937D6C837D68B37D68A37868C36BD00C78D034B
S12306DE7E05E0BD077F8D4008968E918A2202DE7ABD04E0251509DFC83926FD86FF979E21
S12306FEBD02BF35810B270BC6048CC60E7E032B7E0B613233D78A33D78B33D7C833D7C9A7
S123071E8D03DFC839C63A865FD7585FDEC817D6589758A60027ED1127EA08812227EF203D
S123073EF2BD0A31BD00C781882705C69EBD0B5796AF26058DD2DFC839BD00C725857E0610
S123075E0EBD115336818C2704818826A37A00B22604327E0610BD00BF8D06812C27EE31EA
S123077E39CE0000DF8E24F880309758968ED68F811822D758495849DB8F998E5849DB5866
S123079E8900978ED78FBD00BF20DBBD0C41DF9EC6A9BD0B57965C36BD0A313246BD0A2711
S12307BE2749DEB19682A10222232506D683E103241B967C91B122152506D67CD1B2220DB7
S12307DEE600BD0F19DEADBD1077CE00AFDFADBD10B307369F780FDEAD35DE9E32A700322A
S12307FE32A70232A7039E783206397E146ABD0894BD00C72738274E819A275C819D2758B1
S123081E812C2743813B2766BD0A31DEB1965C26DDBD1607BD0F22DEB1960BAB00910C2377
S123083E028D0B8D518D6320C86F00CE000F860D970B8D5B860A8D5737D60A27064F8D4FFA
S123085E5A26FBD70B3339D60BD10D25048DDF201DC00E24FC50201136BD11508129266722
S123087E32819D2704D00B23058D1F5A26FBBD00BF2083BD0F23BD10955C5A27C9A6008D68
S123089E0E08810D26F48DB020F086208C863F7D01112617368120250B960B910C26028D6E
S12308BE8D4C970B323716BD012633393F5245444F2046524F4D2053544152D40D0A009634
S12308DE5F2707DE94DF8A7E0B61CE08C98DA4DE92DFC8397F01118122260ABD0B22C63B35
S12308FEBD0B578D91BD0E5D8D099610260F0C077E064D8D988D937E0404DE96864F975F12
S123091EDF98BD0C41DF9EDEC8DF8EDE98A6002609965F264EBD08AB8DD9DFC8BD00BFD621
S123093E5C271CDEC897588122270709863A9758862C9759BD0F29BD1184BD07C02006BD88
S123095E153EBD146ABD00C72707812C27037E08DDDEC8DF98DE8EDFC8BD00C7272ABD0B2E
S123097E55209FDFC8BD07234D2614A601C606AA02274DA6039794A60497950808080808C7
S123099EA600818326DD2092DE98D65F27037E062DA6002706CE09B97E0891393F4558546D
S12309BE52412049474E4F5245C40D0A002605CE00002003BD0C41DF9EBD02BF2704C600B1
S12309DE204E35080808DF71BD145030A60797B3DE9EBD11DCBD146ADE710808080808BD0D
S12309FE14C630E007270CEE0CDF8A30EE0EDFC87E05E0C610BD031B35BD00C7812C26F0EB
S1230A1EBD00BF8DAF8D0C6D0D76005C288DC6187E032BDEC809DFC84FC63736C601BD0379
S1230A3E02BD0B037F00A2BD00C780A825148103241081014998A291A2255D97A2BD00BF9A
S1230A5E20E8D6A2262D246B8B072467995C26037E103D89FF16481B16CE015FBD031B32BA
S1230A7EA10024568DA1368D23DEA03226184D2771205078005C59DEC809DFC8CE0AA1D70F
S1230A9EA220DC640BD4A100243920DAA60236A601368D07D6A220827E0B61D6B3A60030A9
S1230ABEEE00313137D6B237D6B137D6B037D6AF376E00CE0000324D272881642703BD0AB7
S1230ADE25DFA033815A271C817D271854D7603297B633D7B733D7B833D7B933D7BAD8B323
S1230AFED7BBD6AF397F005C8D5624037E153EBD0C9D245C812E27F481A2274C81A127E857
S1230B1E81222608DEC8BD0F237E1184819F2611865ABD0A38BD0CF096B1D6B243537E0E5A
S1230B3E4C819C26037E0EA580AB24308D06BD0A31C6298CC6288CC62CDEC8A60011260359
S1230B5E7E00BFC6027E032B867DBD0A387E1753BD0C41DFB1965C268B7E145016588DE0DE
S1230B7E37C127251A8DCDBD0A318DCBBD0A2632D6B237D6B13736BD115332371620038D29
S1230B9EAB33CE0131BD031BEE00AD007E0A25864F975ABD0CF0DEB1DF58BD1481BD0CF0E2
S1230BBE9658D6597D005A260694B1D4B220049AB1DAB27E0E4CBD0A27261096BA8A7F9444
S1230BDEB797B7CE00B6BD14C620407F005C7A00A2BD1095D7AFDFB1DEB8BD109796AF10B5
S1230BFE270786012403D6AF4097B307369F780F35DEB15C095A2604D6B3200B3208A10049
S1230C1E27F3C6FF2401509E783206CB0159D4602702C6FF7E14AABD0B55168D0ABD00C73F
S1230C3E26F5395FBD00C7D75B979ABD00C78D4F24037E0B615FD75CBD00BF25048D40255E
S1230C5E0A16BD00BF25FB8D3624F78124260873005CCB80BD00BFD79B9B5E802826037EB5
S1230C7E0D017F005EDE7C969AD69B9C7E2719A1002604E101274808080808080820EC8139
S1230C9E412504805B80A5393236810B2604CE0D1D39DE80DFA5C606BD031BDFA3DE7EDFFA
S1230CBEA9BD02E6DEA3DF80DEA7DF7EDEA9969AD69BA700E7014FA702A703A704A705084A
S1230CDE08DF9C3990800000BD00BFBD0A2396B32B7496AF81902508CE0CE2BD14C6266676
S1230CFE7E14F2965B36965C365F37D69B37D69A378DD533D79A33D79B3330A60136A60089
S1230D1E3696B1A70096B2A7015CBD00C7812C27D9D75ABD0B4F32975C32975BDE7E9C8007
S1230D3E2729969AA1002606969BA1012709A602E603BD031C20E7C612965B260BD65AE1C2
S1230D5E042767C6108CC6087E032B860497BE7F00BD969AA700969BA701D65AE704BD035D
S1230D7E02DFA3C60B4F7D005B27063233CB018900A705E7068D6F97BDD7BE08087A005A8C
S1230D9E26E1BD031C25BCBD0308C02182009780D7814F09A7059C7126F9DEA39680D0A498
S1230DBEE70392A3A702965B263BE604D75A4F5F97BDD7BE3297B133D7B2A1052506224CD0
S1230DDEE106244896BE9ABD0C27048D19DBB299B108087A005A26D858495849CB058900C2
S1230DFEBD031CDF9C39861097A7A6059778A60697794F5F584925147800BE7900BD2406D9
S1230E1EDB79997825067A00A726E9397E0D619F789678D679CE00807D005C270DBD10959A
S1230E3EBD0F9ECE00829684D685E001A2007F005C97B0D7B1C6907E14B1D60B4F20EFDE7E
S1230E5E8A0826A1C6167E032B8D298DF2BD0B52C680D75EBD0C418D2BBD0B4FC6A9BD0BB5
S1230E7E57DEAB96C8D6C9A700E701969CD69D8D757E071EC69CBD0B57C680D75E8A80BDD7
S1230E9E0C47DFAB7E0A258DEBD6AC37D6AB37BD0B4A8DF033D7AB33D7ACDEABC622EE0262
S1230EBE27A4DF9CA60336A60236A60136A60036BD146CDEABD6C937D6C837EE00DFC8D678
S1230EDE9D37D69C37BD0A2333D79C33D79DBD00C727037E0B6133D7C833D7C9DE9C32A7AC
S1230EFE0032A7013233A702E70339BD0A25CE00FFBD160A3131CE00FE200ADFAD8D53DF8C
S1230F1EB1D7AF390986229758975908DFBBDFB1C6FF5CA600270E0891582704915926F263
S1230F3E8122270109DFBDD7AF96BB26078DCCDEBBBD1079DE618C00712605C61E7E032BEC
S1230F5EBD146C86FF975CDF63DFB108080808DF61397F005D375386FFD9859984918225B1
S1230F7E112204D183250B9784D785DE8408DF863339C61A965D26C58D0673005D3320D599
S1230F9EDE88DF84CE0000DFABDE82DFA9CE00659C6127048D3B20F8DE7C9C7E27048D2B94
S1230FBE20F8DFA3DEA39C80274EA602E603DBA499A397A3D7A4A6012AEAE6044F58CB0546
S1230FDEBD031C9CA327DF8D0820F8A60108082A22E600271EA60291842218E6032504D119
S1230FFE85241091A9250C2204D1AA2306DFAB97A9D7AA0808080839DEAB27FB4FE6005A03
S123101EDBAA99A997A5D7A6DE84DFA3BD02E8DEAB96A7D6A8A702E703DEA7097E0FA0967B
S123103EB23696B136BD0B03BD0A263297BB3297BCDEBBE600DEB1EB002405C61C7E032BB8
S123105EBD0F19DEBBE6008D10DEAD8D2C8D0CDEBB8D26BD0F527E0A45EE0207369F780F06
S123107E35DE865C200432A700085A26F9DF869E78320639BD0A26DEB1E6008D182613EEC1
S123109E06099C84260A37DB8599849784D785330839EE02399C632609DF6109090909DF96
S12310BE634F398D037E0E5A8DCA7F005C5D39BD1156C601BD0F7096B2BD0F1DA700313184
S12310DE7E0F528DE32768E60020DA8D454FE1002303E6004F3736BD0F1BDEAD8D9B33BDDC
S12310FE031B33BD107920D88D28A6001020DFC6FFD7B28D4C81292705BD0B558D378D1258
S123111E5F4AA10024CF16E00050D1B223C7D6B220C3BD0B4F33D77833D77931313233D798
S123113EAD33D7AEDEADD67937D6783716263B7E0D64BD00BFBD0A23BD0CEC96B126F0D6DE
S123115EB27E00C7BD10C626037E1247BD031BA600366F00DEC8DFBDDE71DFC88DE3BD1543
S123117E3E32DE73A700DEBDDFC839BD0A238D07DF8EBD0B5520BE96B32BB496AF819022E4
S123119EAEBD14F2DEB1398DEEE6007E0E5A8DDBDE8EE700398DD4D79E5FBD00C727028D4A
S12311BED1D79FDE8EA600989F949E27F839CE16FE200BBD136D7300B37300BB2003BD1362
S12311DE6D5D26037E1481CE00B6162761D0AF275E2B0A97AF96BA97B3CE00AF50C1F82FF7
S12311FE4E4F6401BD12C0D6BB2A0963016302630343890097BC96B299B997B296B199B8AF
S123121E97B196B099B797B0172A4025028D585F96B0262D96B197B096B297B196BC97B249
S123123E7F00BCCB08C1202DE74F97AF97B3398D650C20B35C7800BC7900B27900B1790042
S123125EB02AF196AF1097AF23DF8C25057800BC200E7C00AF27277600B07600B17600B2FE
S123127E24048D0F27EC397300B37300B07300B17300B2DEB108DFB126037C00B039C60A25
S123129E7E032BCE0074A60397BCA602A703A601A70296B5A701CB082FEC96BCC008270A74
S12312BE670166026603465C26F6398100000002801956AA807622F18238AA45803504F362
S12312DE813504F38080000080317218BD149B2E037E0D64CE12DA96AF808036868097AFF7
S12312FEBD11DCCE12DEBD13D4CE12C9BD11D1CE12CDBD17B9CE12E2BD11DC33BD15C9CE36
S123131E12E68D4B27488D638600977597769777D6B28D0ED6B18D0AD6B08D0BBD14477EDA
S123133E122D26037E12A10D9675562721241096779BB99777967699B89776967599B7468E
S123135E97757600767600777600BC0C20DA39A60197BA168A8097B7D8B3D7BBA60297B89B
S123137EA60397B9A60097B6D6AF394D27199BAF464928138B8097AF26037E124A96BB97C4
S123139EB33996B343200232322B037E12477E129CBD148E270F8B0225F47F00BBBD11E8D1
S12313BE7C00AF27E93984200000BD148ECE13C45FD7BB8D7D8C8D97276A7000AF8DAC7CDF
S12313DE00AF27CACE0075C603D75AC60196B091B7260D96B191B8260796B291B926010D03
S12313FE0759240CE700087A005A2B2E2728C60106250F7800B97900B87900B725E22BCD3E
S123141E20DE96B990B297B996B892B197B896B792B097B720DDC64020D6565656D7BC8DF3
S123143E087E122DC6147E032BDE75DFB0967797B239E601D7B3CA80D7B0E600EE02DFB126
S123145ED7AF39CE00A72006CE00A38CDE9E96AFA70096B38A7F94B0A70196B1A70296B235
S123147EA7033996BA97B3DEB6DFAFDEB8DFB139DEB0DFB7DEB2DFB996AF97B639D6AF2789
S123149E08D6B359C6FF250150398DF1D7B07F00B1C68896B08080D7AF860097B297BC97C4
S12314BEB37E12297F00B339E60027D1E601D8B32BCFD6AFE1002617E601CA7FD4B0E101B0
S12314DE260DD6B1E1022607D6B2E00326013956D8B320AFD6AF2741C09896B32A06730074
S12314FEB5BD1288CE00AFC1F82E07BD12B47F00B5397F00B596B3497600B07E12C0D6AFA2
S123151EC198241B8DCED7BC96B3D7B38080869897AF96B297587E1229D7B0D7B1D7B2392B
S123153ECE0000DFB3DFAFDFB1DFA9DFA7256B812D26057300B42004812B2605BD00BF25D1
S123155E59812E272D8145262EBD00BF256981A2270E812D270A81A12709812B2705200860
S123157E7300AABD00BF254F7D00AA270A7000A920057300A826C596A990A797A927142A85
S123159E0ABD13C87C00A926F82008BD13AF7A00A926F896B42A887E1753D6A7D0A8D7A705
S12315BE36BD13AF33C0308D022091BD1466BD14AACE00A37E11DCD6A95858DBA9588030A8
S12315DE1B97A9209E91434FF8947423F794742400CE02AA8D10968AD68B97B0D7B1C690AA
S12315FE0DBD14B58D037E0891CE01008620D6B32A02862DA70097B3DFBD088630D6AF26BC
S123161E037E16F64FC1802208CE15EBBD132086FA97A7CE15E7BD14D02E10CE15E3BD14A5
S123163ED02E10BD13AF7A00A720F0BD13C87C00A720E0BD11CCBD14F2C60196A78B072BF1
S123165E08810824044A1686024A4A97A9D7A72E11DEBD862E08A7005D2705863008A7004A
S123167EDFBDCE1702C68096B2AB0297B296B1A90197B196B0A90097B05C565928E924038F
S123169EC00B50CB2F080808DF9CDEBD0817847FA7007A00A72605862E08A700DFBDDE9C57
S12316BE53C4808C171426BFDEBDA60009813027F9812E270108862BD6A9271E2A03862D86
S12316DE50A7028645A701862F4CC00A24FBCB3AA703E7046F052004A7006F01CE01003941
S12316FE80000000FE7960002710FFFC18000064FFFFF6000001BD148ECE16FEBD14502745
S123171E614D26037E1248CE00ABBD146C5F96BA2A10BD151CCE00AB96BABD14D026034395
S123173ED658BD148337BD12EACE00ABBD13208D31324624AA96AF27037300B3398138AA77
S123175E3B0774942E40772E4F707A88026E7C2AA0E67EAAAA507F7FFFFF8180000081000D
S123177E0000BD1466CE175B8D3D96AF818825037E13A0BD151C96588B8127F436CE12C97D
S123179EBD11DCBD131DCE00A3BD11D18DA7CE175F8D177F00BB32BD138939DFBDBD146693
S12317BE8D058D08CE00A37E1320DFBDBD1461DEBDE600D7B408DFBD8DEDDEBD080808080B
S12317DEDFBDBD11DCCE00A77A00B426EB399835447A6828B146BD149B172B14CE010DBD47
S12317FE14504D27E8CE17EC8DBDCE17F0BD11DCD6B296B097B2D7B07F00B396AF97BC867F
S123181E8097AFBD122DCE010D7E146CCE1899BD11DCBD148ECE189DD6BABD13CFBD148E71
S123183EBD151C7F00BB96B6D6AFBD11D4CE18A1BD11D196B3362A0ABD11CC96B32B06738B
S123185E0060BD1753CE18A1BD11DC324D2A03BD1753CE18A57E17B9BD14667F00608DB2AD
S123187ECE00AB8DA4CE00A3BD14507F00B396608D06CE00AB7E13D43620C781490FDB831D
S123189E490FDB7F00000004861ED7BA879926648723345886A55DE083490FDA96B3362A95
S12318BE028D2096AF3681812505CE12C98DC6CE18E58DA13281812506CE1899BD11D1320C
S12318DE4D2A037E17533908783BD74A7B846E027C2FC1FE7D9A31747D5A3D847E917FC8EC
S12318FE7E4CBBE47FAAAA6C8100000000CE1A37BD0891CEFFFFDF8A8E1B339F827F011165
S123191EBD084CCE0065DF61CE1AC2BD0891BD0911DFC8BD00BF814127D34D2615CE1ACF2C
S123193E088637A700A10026174AA700A10027F0200EBD00C7BD077F4D27037E0B61DE8ED0
S123195E09DF88DF84CE1A5BBD0891BD0911DFC8BD00BF16271CBD077F968E26E8968F818B
S123197E1025E2970C800E24FC40800E9B0C970D20088648970C8638970DC6CE86FFDB894C
S123199E998825037E03299782D783CE1A22BD0891BD0911DFC8BD00BFCE190A815927244F
S12319BE81412704814E26E3CE0D64FF014BCE18BA8141270FCE0D64FF0145FF0149FF0151
S12319DE47CE182A4FA70008DF7ADE822B058C1B332BB1DF82967AD67BBD0308BD084CD680
S12319FE83D07B9682927ABD15F8CE1A6ABD0891CE0891FF0113BD04FC86BD9704CE051861
S1231A1EDF057E035457414E542053494E2D434F532D54414E2D4154CE000D0A0C575249E0
S1231A3E5454454E204259205249434841524420572E205745494C414E44AE0D0A0054454A
S1231A5E524D494E414C2057494454C80020425954455320465245C50D0A0D0A4D495453AD
S1231A7E20414C54414952203638302042415349432056455253494F4E20312E312052457A
S1231A9E5620332EB20D0A434F505952494748542031393736204259204D49545320494E05
S1231ABE43AE0D0A004D454D4F52592053495AC500002049532049542052455455524E0DC2
S1231ADE20424551204F55540D2042524120494E5441504520474554204E455854204348E7
S11E1AFE415241435445520D20454E440D0000000000000000000000000000B6
S12100E006060606060604FFFDFFFDFFFFFFFDFDFFFDFD00FDFFFDFDFDFFFDFFFF649D
