S10400F3FF09
S11300000D7600F37E1A4F7E034A00004838002C18
S113001000000000000000000000000000000000DC
S113002000000000000000000000000000000000CC
S113003000000000000000000000000000000000BC
S113004000000000000000000000000000000000AC
S1130050000000000000000000000000000000009C
S1130060000000000000000000000000000000008C
S1130070000000000000000000000000000000007C
S1130080000000000000000000000000000000006C
S1130090000000000000000000000000000000005C
S11300A0000000000000000000000000000000004C
S11300B00000000000000000000000000000007CC0
S11300C000C926037C00C8B6EA60813A240881206E
S11300D027ED803080D039FFEA607E03D500000030
S113010000000000000000000000000000804FC755
S113011052007E1A4F0CF10E6015E6165A16000DA9
S1130120710E410E6C18521932142818BE19681930
S11301306E19B419F811BC10D50F1D117910F510F2
S1130140E11100111D112479131D7913127B146020
S11301507B15147F185B500BA4460BA3454EC44675
S11301604FD24E4558D4444154C1494E5055D444BD
S113017049CD524541C44C45D4474F54CF5255CE36
S113018049C6524553544F52C5474F5355C2524521
S1130190545552CE5245CD53544FD04FCE4E554C5C
S11301A0CC574149D4434C4F41C443534156C544B1
S11301B045C6504F4BC55052494ED4434F4ED44C74
S11301C04953D4434C4541D24E45D7544142A85497
S11301D0CF46CE535043A8544845CE4E4FD45354E3
S11301E045D0ABADAAAFDE414EC44FD2BEBDBC5369
S11301F047CE494ED44142D35553D24652C5504FAF
S1130200D35351D2524EC44C4FC74558D0434FD309
S11302105349CE5441CE4154CE504545CB4C45CEA6
S1130220535452A45641CC4153C3434852A44C4561
S11302304654A45249474854A44D4944A400063C9A
S1130240057309C1071408E80C2E090E079F06D789
S113025006B10735062006BB06EE0748063B0755E0
S1130260067211CA120611E30E7B11C30808066058
S11302700522068304F04EC653CE52C74FC446C36C
S11302804FD64FCD55D342D344C42FB049C454CDD7
S11302904FD34CD353D443CE55C6204552524FD29C
S11302A00020494EA0000D0A4FCB0D0A000D0A4252
S11302B0524541CB003008080808C610DF71A6007B
S11302C080812614EE01DF73DE9E27089C732708C5
S11302D08D4220E6DE73DF9EDE714D398D200736B8
S11302E09F780F9EA3DEA50809A600369CA926F8D0
S11302F0319FA79E783206394F58DB819980CB26EF
S11303008900251B9F78917825062213D179220F25
S1130310394FDF71DB7299719773D774DE7339C605
S11303200CBD050E7F0111BD0842BD08A1CE0276A9
S11303308DDFA600BD08A3A601BD08A3CE0299BD0A
S11303400887DE8A082703BD172D7F0111CE02A579
S1130350BD0112862C970FBD03FADFC8BD00BF276D
S1130360F2250BCEFFFFDF8ABD043C7E05FDBD07F1
S113037075DE8EDF0EBD043CD75ABD04D22522D6CD
S1130380AAE00186FFDB7D997C977CD77D07369FA9
S1130390780FAE003432A700089C7C26F89E783291
S11303A0069610272B967CD67D97A5D7A6DB5A896F
S11303B00097A3D7A4BD02DC07369F780F8E000BED
S11303C032A700089CA726F89E783207DEA3DF7CBC
S11303D0BD04FCDE7AA600AA0126037E0353DFD8FF
S11303E00808080808A60026FB087E00D7BD08A355
S11303F0095A260BBD08A3BD0842CE0010C6018DC4
S11304002B81072714810D2720812025F2817D244B
S1130410EE814027DF815F27D4A700C14824030869
S11304205C8C8607BD08A320D67E083D37BDFF003F
S11304301733847F810F2603730111397F005D7A9E
S113044000C9CE000FDFBD9F7807975F010F9EC8DC
S113045033C1202732D759C1222755965D2628C19A
S11304603F2604C6972020C1302504C13C2518CE60
S1130470015B9EC85F0832812027FBA00027F6811C
S1130480802632CA80DEBD9FC89E78965F0608DF4C
S1130490BDE700272FC03A2704C1492602D75DC013
S11304A05426A9D7590F9EC8335D27DBD15927D7C6
S11304B008E70020F39EC85CA600082AFBA60026D5
S11304C0B53320C1E701E702D6BEC00BCE000FDF73
S11304D0C839968EDE7AE600EA012710A1022208C6
S11304E0250BD68FE1032305EE0020EA0DDFA939A1
S11304F026FBDE7A6F00086F0008DF7CDE7A09DFF6
S1130500C8DE88DF84BD0620DE7CDF7EDF80CE008F
S113051065DF6130EE009E824F3697909791975E2B
S11305206E0022ADBD077526A832328DA5A600AA9D
S11305300126037E034ABD0626BD0842A602E60341
S113054008080808DF71BD17368620DE71BD08A3D0
S1130550A600084D27D72AF5807FDF71CE015C4ABB
S11305602707E600082AFB20F6A6002BDE08BD08B4
S1130570A320F68680975EBD079FBD02B531312664
S113058004BD031435C608BD02F8BD0719DF71D6D2
S11305907237D67137D68B37D68A37C69DBD0B4D89
S11305A0BD0A1BBD0A19D6B3CA7FD4B0D7B0CE05D5
S11305B0B47E0AB9CE1407BD158EBD00C781A2262C
S11305C006BD00BFBD0A19BD15D9BD0AB3D69F37F4
S11305D0D69E378681368D4EDEC8DF92A600270769
S11305E0813A27197E0B5708A60008AA000C072792
S11305F05408A600978A08A600978BDFC8BD00BFE1
S11306008D0220D2276B808024037E079F811C24C7
S1130610D34816CE023EBD0311EE00BD00BF6E00EE
S1130620DE7A09DF9639BDFF2424FABD042C36B6E0
S1130630F0028402322702860381030D263307DE8B
S1130640C8DF923131DE8A08270709DF8CDE92DFAA
S1130650907F0111CE02AC0624037E033F7E034A41
S1130660260FC620DE9026037E0321DFC8DE8CDF42
S11306708A39BD116A26FA5CD10C24045AD70A3986
S11306807E0D712729BD0CE7BD00C726E49688D6E8
S113069089D0B292B12514DE829782D783C0288292
S11306A0002506D07D927C2405DF827E031F7E0513
S11306B00126037E04FCBD05012014C603BD02F817
S11306C0D6C937D6C837D68B37D68A37868C36BD47
S11306D000C78D037E05D6BD07758D4008968E91A3
S11306E08A2202DE7ABD04D6251509DFC83926FD23
S11306F086FF979EBD02B535810B270BC6048CC6B9
S11307000E7E03217E0B573233D78A33D78B33D7F0
S1130710C833D7C98D03DFC839C63A865FD7585F57
S1130720DEC817D6589758A60027ED1127EA088186
S11307302227EF20F2BD0A27BD00C781882705C6FE
S1130740A0BD0B4D96AF26058DD2DFC839BD00C7BD
S113075025857E0604BD116A36818C27048188268E
S1130760A37A00B22604327E0606BD00BF8D068140
S11307702C27EE3139CE0000DF8E24F880309758D4
S1130780968ED68F811822D758495849DB8F998E77
S11307905849DB588900978ED78FBD00BF20DBBD39
S11307A00C37DF9EC6ABBD0B4D965C36BD0A2732B7
S11307B046BD0A1D2749DEB19682A10222232506E1
S11307C0D683E103241B967C91B122152506D67CA1
S11307D0D1B2220DE600BD0F2DDEADBD108BCE00D3
S11307E0AFDFADBD10C707369F780FDEAD35DE9E97
S11307F032A7003232A70232A7039E783206397E2E
S113080015A8BD088ABD00C72738274E819C275CE0
S1130810819F2758812C2743813B2766BD0A27DE09
S1130820B1965C26DDBD1745BD0F36DEB1960BAB28
S113083000910C23028D0B8D518D6320C86F00CE67
S1130840000F860D970B8D5B860A8D5737D60A27C6
S1130850064F8D4F5A26FBD70B3339D60BD10D25B6
S1130860048DDF201DC00E24FC50201136BD1167FD
S11308708129266732819F2704D00B23058D1F5AB7
S113088026FBBD00BF2083BD0F37BD10A95C5A27CE
S1130890C9A6008D0E08810D26F48DB020F08620A7
S11308A08C863F7D01112617368120250B960B91EE
S11308B00C26028D8D4C970B323716BDFF813339D0
S11308C03F5245444F2046524F4D2053544152D439
S11308D00D0A00965F2707DE94DF8A7E0B57CE0849
S11308E0BF8DA4DE92DFC8397F01118122260ABDA3
S11308F00B18C63BBD0B4D8D91BD0E718D09961025
S1130900260F0C077E06438D988D937E03FADE96A0
S1130910864F975FDF98BD0C37DF9EDEC8DF8EDE23
S113092098A6002609965F264EBD08A18DD9DFC87A
S1130930BD00BFD65C271CDEC89758812227070953
S1130940863A9758862C9759BD0F3DBD119BBD071C
S1130950B62006BD167CBD15A8BD00C72707812C8F
S113096027037E08D3DEC8DF98DE8EDFC8BD00C74C
S1130970272ABD0B4B209FDFC8BD07194D2614A69F
S113098001C606AA02274DA6039794A604979508C4
S113099008080808A600818326DD2092DE98D65F29
S11309A027037E0623A6002706CE09AF7E088739D3
S11309B03F45585452412049474E4F5245C40D0AB1
S11309C0002605CE00002003BD0C37DF9EBD02B516
S11309D02704C600204E35080808DF71BD158E3087
S11309E0A60797B3DE9EBD131ABD15A8DE710808CD
S11309F0080808BD160430E007270CEE0CDF8A3027
S1130A00EE0EDFC87E05D6C610BD031135BD00C786
S1130A10812C26F0BD00BF8DAF8D0C6D0D76005C72
S1130A20288DC6187E0321DEC809DFC84FC63736B5
S1130A30C601BD02F8BD0AF97F00A2BD00C780AAA5
S1130A4025148103241081014998A291A2255D9760
S1130A50A2BD00BF20E8D6A2262D246B8B072467F5
S1130A60995C26037E105189FF16481B16CE014758
S1130A70BD031132A10024568DA1368D23DEA03290
S1130A8026184D2771205078005C59DEC809DFC84C
S1130A90CE0A97D7A220DC640BCAA100243920DA3D
S1130AA0A60236A601368D07D6A220827E0B57D623
S1130AB0B3A60030EE00313137D6B237D6B137D6CF
S1130AC0B037D6AF376E00CE0000324D2728816490
S1130AD02703BD0A1BDFA033815A271C817D2718F9
S1130AE054D7603297B633D7B733D7B833D7B9337F
S1130AF0D7BAD8B3D7BBD6AF397F005C8D562403A1
S1130B007E167CBD0C9B245C812E27F481A4274C8B
S1130B1081A327E881222608DEC8BD0F377E119BFA
S1130B2081A12611865ABD0A2EBD0CF196B1D6B20A
S1130B3043537E0E60819E26037E0EB980AD243021
S1130B408D06BD0A27C6298CC6288CC62CDEC8A6ED
S1130B50001126037E00BFC6027E0321867DBD0AE6
S1130B602E7E1891BD0C37DFB1965C268B7E158ED8
S1130B7016588DE037C127251A8DCDBD0A278DCB98
S1130B80BD0A1C32D6B237D6B13736BD116A3237F8
S1130B901620038DAB33CE0119BD0311EE00AD0059
S1130BA07E0A1B864F975ABD0CF1DEB1DF58BD1586
S1130BB0BFBD0CF19658D6597D005A260694B1D47F
S1130BC0B220049AB1DAB27E0E60BD0A1D261096D8
S1130BD0BA8A7F94B797B7CE00B6BD160420407F7B
S1130BE0005C7A00A2BD10A9D7AFDFB1DEB8BD109A
S1130BF0AB96AF10270786012403D6AF4097B307FF
S1130C00369F780F35DEB15C095A2604D6B3200B23
S1130C103208A10027F3C6FF2401509E783206CB88
S1130C200159D4602702C6FF7E15E8BD0B4B168D13
S1130C300ABD00C726F5395FBD00C7D75B979ABDCB
S1130C4000C78D5724037E0B575FD75CBD00BF25BB
S1130C50048D48250A16BD00BF25FB8D3E24F7816F
S1130C6024260873005CCB80BD00BFD79BD65E5A98
S1130C7026037E0D3E9B5E802826037E0D027F00A8
S1130C805EDE7C969AD69B9C7E2719A1002604E101
S1130C9001274808080808080820EC814125048039
S1130CA05B80A5393236810B2604CE0D1E39DE80D9
S1130CB0DFA5C606BD0311DFA3DE7EDFA9BD02DC0E
S1130CC0DEA3DF80DEA7DF7EDEA9969AD69BA7008F
S1130CD0E7014FA702A703A704A7050808DF9C396B
S1130CE090800000BD00BFBD0A1996B32A037E0D93
S1130CF07196AF81902508CE0CE0BD160426727E55
S1130D001630965B36965C365F37D69B37D69A3765
S1130D108DD233D79A33D79B3330A60136A600360B
S1130D2096B1A70096B2A7015CBD00C7812C27D954
S1130D30D75ABD0B4532975C32975BC6FF865F3747
S1130D40DE7E9C802730969AA1002606969BA10100
S1130D502709A602E603BD031220E7C612324D2678
S1130D60037E12B4965B260BD65AE104276EC61096
S1130D708CC6087E0321324D26037E0B57860497CA
S1130D80BE7F00BD969AA700969BA701D65AE7049A
S1130D90BD02F8DFA3C60B4F7D005B27063233CBC1
S1130DA0018900A705E7068D6F97BDD7BE08087AAD
S1130DB0005A26E1BD031225B5BD02FEC021820002
S1130DC09780D7814F09A7059C7126F9DEA39680E9
S1130DD0D0A4E70392A3A702965B263BE604D75A66
S1130DE04F5F97BDD7BE3297B133D7B2A105250661
S1130DF0224CE106244896BE9ABD0C27048D19DBCB
S1130E00B299B108087A005A26D858495849CB05EE
S1130E108900BD0312DF9C39861097A7A605977831
S1130E20A60697794F5F584925147800BE7900BD0E
S1130E302406DB79997825067A00A726E9397E0D00
S1130E406E9F789678D679CE00807D005C270DBDA4
S1130E5010A9BD0FB2CE00829684D685E001A2000F
S1130E607F005C97B0D7B1C6907E15EFD60B4F20AC
S1130E70EFDE8A0826A1C6167E03218D298DF2BDD8
S1130E800B48C680D75EBD0C378D2BBD0B45C6AB5A
S1130E90BD0B4DDEAB96C8D6C9A700E701969CD61C
S1130EA09D8D757E0714C69EBD0B4DC680D75E8A88
S1130EB080BD0C3DDFAB7E0A1B8DEBD6AC37D6ABC9
S1130EC037BD0B408DF033D7AB33D7ACDEABC62286
S1130ED0EE0227A4DF9CA60336A60236A60136A698
S1130EE00036BD15AADEABD6C937D6C837EE00DF4B
S1130EF0C8D69D37D69C37BD0A1933D79C33D79DA6
S1130F00BD00C727037E0B5733D7C833D7C9DE9C30
S1130F1032A70032A7013233A702E70339BD0A1B07
S1130F20CE00FFBD17483131CE00FE200ADFAD8D63
S1130F3053DFB1D7AF390986229758975908DFBBD9
S1130F40DFB1C6FF5CA600270E089158270491590B
S1130F5026F28122270109DFBDD7AF96BB26078D74
S1130F60CCDEBBBD108DDE618C00712605C61E7EF5
S1130F700321BD15AA86FF975CDF63DFB10808086B
S1130F8008DF61397F005D375386FFD985998491E5
S1130F908225112204D183250B9784D785DE84080A
S1130FA0DF863339C61A965D26C58D0673005D3318
S1130FB020D5DE88DF84CE0000DFABDE82DFA9CE61
S1130FC000659C6127048D3B20F8DE7C9C7E270411
S1130FD08D2B20F8DFA3DEA39C80274EA602E60318
S1130FE0DBA499A397A3D7A4A6012AEAE6044F5841
S1130FF0CB05BD03129CA327DF8D0820F8A60108AA
S1131000082A22E600271EA60291842218E6032558
S113101004D185241091A9250C2204D1AA2306DF2A
S1131020AB97A9D7AA0808080839DEAB27FB4FE617
S1131030005ADBAA99A997A5D7A6DE84DFA3BD022F
S1131040DEDEAB96A7D6A8A702E703DEA7097E0FCC
S1131050B496B23696B136BD0AF9BD0A1C3297BBB6
S11310603297BCDEBBE600DEB1EB002405C61C7E75
S11310700321BD0F2DDEBBE6008D10DEAD8D2C8D62
S11310800CDEBB8D26BD0F667E0A3BEE0207369F43
S1131090780F35DE865C200432A700085A26F9DF73
S11310A0869E78320639BD0A1CDEB1E6008D18260C
S11310B013EE06099C84260A37DB8599849784D726
S11310C085330839EE02399C632609DF6109090971
S11310D009DF634F398D037E0E6E8DCA7F005C5D20
S11310E039BD116DC601BD0F8496B2BD0F31A70085
S11310F031317E0F668D0220DE8DDF2767E60039F1
S11311008D454FE1002303E6004F3736BD0F2FDE38
S1131110AD8D9833BD031133BD108D20D58D28A618
S1131120001020DFC6FFD7B28D4C81292705BD0BE7
S11311304B8D378D125F4AA10024CF16E00050D1A9
S1131140B223C7D6B220C3BD0B4533D77833D77982
S113115031313233D7AD33D7AEDEADD67937D67829
S11311603716263B7E0D71BD00BFBD0A19BD0CEAC2
S113117096B126F0D6B27E00C7BD10DA26037E13E0
S113118085BD0311A600366F00DEC8DFBDDE71DF4A
S1131190C88DE3BD167C32DE73A700DEBDDFC8391F
S11311A0BD0A198D07DF8EBD0B4B20BE96B32BB441
S11311B096AF819022AEBD1630DEB1398DEEE600D9
S11311C07E0E6E8DDBDE8EE700398DD4D79E5FBD3B
S11311D000C727028DD1D79FDE8EA600989F949ECC
S11311E027F83981A526037E12A5BD0A27BD10F96B
S11311F086D3BD12788D7F178D7EDE7AA600088D8A
S1131200779C7C26F73981A526037E12A87F00B03F
S1131210819726087A00B0DEC808DFC8BD0A27BD5A
S113122010F996B02603BD04F237C6038D5581D359
S113123026F85A26F78D4C331126EEDE7A09201B48
S11312408D41A7008D48A7008D44A700DFB196B15A
S1131250D6B2BD02FE8D37A70026F18D26A7002643
S1131260DF8D20A70026DD08DF7CCE02A5BD088720
S1131270BD03D07E03538D0036B6F0102BFB32B77E
S1131280F01139B6F0104625FA08B6F011398DF38D
S113129036A00094B032260139CE12FDBD0887BDB8
S11312A0050E7E034AC6FF865F37BD00BFC601D761
S11312B05E7E0C37BD0A1DA602E603BD0312DE7175
S11312C0E60458CB05DB724F99719771D772329748
S11312D0B1260DC6048DAC81D226F85A26F7200615
S11312E086D28D928D90DE719C7327A1A600D6B113
S11312F027048D8420058D8B09A7000820EA4E4F12
S113130020474F4F4409890D0A00CE183C200BBDDD
S113131014AB7300B37300BB2003BD14AB5D260391
S11313207E15BFCE00B6162761D0AF275E2B0A9775
S1131330AF96BA97B3CE00AF50C1F82F4E4F6401A9
S1131340BD13FED6BB2A096301630263034389000C
S113135097BC96B299B997B296B199B897B196B02D
S113136099B797B0172A4025028D585F96B0262D5D
S113137096B197B096B297B196BC97B27F00BCCBAA
S113138008C1202DE74F97AF97B3398D650C20B373
S11313905C7800BC7900B27900B17900B02AF1968A
S11313A0AF1097AF23DF8C25057800BC200E7C009E
S11313B0AF27277600B07600B17600B224048D0FF3
S11313C027EC397300B37300B07300B17300B2DE5D
S11313D0B108DFB126037C00B039C60A7E0321CEF2
S11313E00074A60397BCA602A703A601A70296B59C
S11313F0A701CB082FEC96BCC008270A6701660238
S11314006603465C26F6398100000002801956AA5C
S1131410807622F18238AA45803504F3813504F3BD
S11314208080000080317218BD15D92E037E0D71A5
S1131430CE141896AF808036868097AFBD131ACE2F
S1131440141CBD1512CE1407BD130FCE140BBD18FA
S1131450F7CE1420BD131A33BD1707CE14248D4BB9
S113146027488D638600977597769777D6B28D0E49
S1131470D6B18D0AD6B08D0BBD15857E136B2603B0
S11314807E13DF0D9675562721241096779BB99706
S113149077967699B89776967599B7469775760044
S11314A0767600777600BC0C20DA39A60197BA1656
S11314B08A8097B7D8B3D7BBA60297B8A60397B9C3
S11314C0A60097B6D6AF394D27199BAF46492813C6
S11314D08B8097AF26037E138896BB97B33996B358
S11314E043200232322B037E13857E13DABD15CCE2
S11314F0270F8B0225F47F00BBBD13267C00AF278A
S1131500E93984200000BD15CCCE15025FD7BB8D10
S11315107D8C8D97276A7000AF8DAC7C00AF27CA95
S1131520CE0075C603D75AC60196B091B7260D965C
S1131530B191B8260796B291B926010D0759240C2A
S1131540E700087A005A2B2E2728C60106250F78B3
S113155000B97900B87900B725E22BCD20DE96B921
S113156090B297B996B892B197B896B792B097B728
S113157020DDC64020D6565656D7BC8D087E136B48
S1131580C6147E0321DE75DFB0967797B239E60183
S1131590D7B3CA80D7B0E600EE02DFB1D7AF39CEF9
S11315A000A72006CE00A38CDE9E96AFA70096B3BC
S11315B08A7F94B0A70196B1A70296B2A703399681
S11315C0BA97B3DEB6DFAFDEB8DFB139DEB0DFB76E
S11315D0DEB2DFB996AF97B639D6AF2708D6B3597E
S11315E0C6FF250150398DF1D7B07F00B1C688966A
S11315F0B08080D7AF860097B297BC97B37E13674D
S11316007F00B339E60027D1E601D8B32BCFD6AF9C
S1131610E1002617E601CA7FD4B0E101260DD6B158
S1131620E1022607D6B2E00326013956D8B320AF2B
S1131630D6AF2741C09896B32A067300B5BD13C62A
S1131640CE00AFC1F82E07BD13F27F00B5397F007D
S1131650B596B3497600B07E13FED6AFC198241B6D
S11316608DCED7BC96B3D7B38080869897AF96B209
S113167097587E1367D7B0D7B1D7B239CE0000DF01
S1131680B3DFAFDFB1DFA9DFA7256B812D2605739B
S113169000B42004812B2605BD00BF2559812E27C7
S11316A02D8145262EBD00BF256981A4270E812DDD
S11316B0270A81A32709812B270520087300AABDC7
S11316C000BF254F7D00AA270A7000A920057300DA
S11316D0A826C596A990A797A927142A0ABD150676
S11316E07C00A926F82008BD14ED7A00A926F896F6
S11316F0B42A887E1891D6A7D0A8D7A736BD14EDF2
S113170033C0308D022091BD15A4BD15E8CE00A3D1
S11317107E131AD6A95858DBA95880301B97A920E4
S11317209E91434FF8947423F794742400CE02A03E
S11317308D10968AD68B97B0D7B1C6900DBD15F390
S11317408D037E0887CE01008620D6B32A02862D1B
S1131750A70097B3DFBD088630D6AF26037E1834C2
S11317604FC1802208CE1729BD145E86FA97A7CEF2
S11317701725BD160E2E10CE1721BD160E2E10BD28
S113178014ED7A00A720F0BD15067C00A720E0BD6B
S1131790130ABD1630C60196A78B072B08810824AF
S11317A0044A1686024A4A97A9D7A72E11DEBD8697
S11317B02E08A7005D2705863008A700DFBDCE18D8
S11317C040C68096B2AB0297B296B1A90197B19682
S11317D0B0A90097B05C565928E92403C00B50CB3C
S11317E02F080808DF9CDEBD0817847FA7007A0055
S11317F0A72605862E08A700DFBDDE9C53C4808C77
S1131800185226BFDEBDA60009813027F9812E2794
S11318100108862BD6A9271E2A03862D50A70286E7
S113182045A701862F4CC00A24FBCB3AA703E70443
S11318306F052004A7006F01CE010039800000006D
S1131840FE7960002710FFFC18000064FFFFF6001B
S11318500001BD15CCCE183CBD158E27614D260365
S11318607E1386CE00ABBD15AA5F96BA2A10BD16AC
S11318705ACE00AB96BABD160E260343D658BD15F4
S1131880C137BD1428CE00ABBD145E8D3132462461
S1131890AA96AF27037300B3398138AA3B0774941F
S11318A02E40772E4F707A88026E7C2AA0E67EAA9C
S11318B0AA507F7FFFFF8180000081000000BD15DA
S11318C0A4CE18998D3D96AF818825037E14DEBD84
S11318D0165A96588B8127F436CE1407BD131ABDB9
S11318E0145BCE00A3BD130F8DA7CE189D8D177F5B
S11318F000BB32BD14C739DFBDBD15A48D058D08ED
S1131900CE00A37E145EDFBDBD159FDEBDE600D70D
S1131910B408DFBD8DEDDEBD08080808DFBDBD13CA
S11319201ACE00A77A00B426EB399835447A682891
S1131930B146BD15D9172B14CE010DBD158E4D27FB
S1131940E8CE192A8DBDCE192EBD131AD6B296B083
S113195097B2D7B07F00B396AF97BC868097AFBDE0
S1131960136BCE010D7E15AACE19D7BD131ABD1562
S1131970CCCE19DBD6BABD150DBD15CCBD165A7F1C
S113198000BB96B6D6AFBD1312CE19DFBD130F96AA
S1131990B3362A0ABD130A96B32B06730060BD182A
S11319A091CE19DFBD131A324D2A03BD1891CE19F9
S11319B0E37E18F7BD15A47F00608DB2CE00AB8D19
S11319C0A4CE00A3BD158E7F00B396608D06CE0015
S11319D0AB7E15123620C781490FDB83490FDB7FAD
S11319E000000004861ED7BA8799266487233458DA
S11319F086A55DE083490FDA96B3362A028D2096D8
S1131A00AF3681812505CE14078DC6CE1A238DA14C
S1131A103281812506CE19D7BD130F324D2A037E9C
S1131A2018913908783BD74A7B846E027C2FC1FE1B
S1131A307D9A31747D5A3D847E917FC87E4CBBE48F
S1131A407FAAAA6C8100000000CE1B75BD0887CE5A
S1131A50FFFFDF8A8E1C7C9F827F0111BD0842CE6E
S1131A600065DF61CE1C0BBD0887BD0907DFC8BD5B
S1131A7000BF814127D34D2615CE1C18088637A7F1
S1131A8000A10026174AA700A10027F0200EBD00E0
S1131A90C7BD07754D27037E0B57DE8E09DF88DF30
S1131AA084CE1B99BD0887BD0907DFC8BD00BF16DA
S1131AB0271CBD0775968E26E8968F811025E29720
S1131AC00C800E24FC40800E9B0C970D2008864849
S1131AD0970C8638970DC6CE86FFDB899988250337
S1131AE07E031F9782D783CE1B60BD0887BD09077D
S1131AF0DFC8BD00BFCE1A4881592724814127047D
S1131B00814E26E3CE0D71FF0133CE19F8814127B2
S1131B100FCE0D71FF012DFF0131FF012FCE19688A
S1131B204FA70008DF7ADE822B058C1C7C2BB1DFEB
S1131B3082967AD67BBD02FEBD0842D683D07B96C0
S1131B4082927ABD1736CE1BA8BD0887CE0887FFC0
S1131B500113BD04F286BD9704CE050EDF057E0396
S1131B604A57414E542053494E2D434F532D54410F
S1131B704E2D4154CE000D0A0C5752495454454E33
S1131B80204259205249434841524420572E20575D
S1131B9045494C414E44AE0D0A005445524D494E00
S1131BA0414C2057494454C80020425954455320BD
S1131BB0465245C50D0A0D0A4D49545320414C5413
S1131BC0414952203638302042415349432056453A
S1131BD05253494F4E20312E312052455620332E38
S1131BE0B20D0A2D2D4B434143522DAD0D0A434FE7
S1131BF050595249474854203139373620425920E8
S1131C004D49545320494E43AE0D0A004D454D4FA6
S10C1C1052592053495AC5000041
S10400F30008
S9
